:020000040800F2
:10000000380C0020C9010008571600088D1200089E
:100010005516000835060008331C000800000000D3
:10002000000000000000000000000000CD1B0008E0
:100030003706000800000000CB1B0008CF1B00089B
:10004000E3010008E3010008E3010008E301000800
:10005000E3010008E3010008390600088D060008E6
:10006000E3010008AD060008DD060008E301000812
:10007000E3010008E3010008E3010008E3010008D0
:10008000E3010008E3010008E3010008E3010008C0
:10009000E3010008E3010008E30100080D07000880
:1000A000E3010008E3010008E3010008E3010008A0
:1000B000E3010008E3010008E3010008E301000890
:1000C000E3010008E3010008E3010008E301000880
:1000D000E3010008E3010008E3010008E301000870
:1000E0006D060008E3010008E301000800F002F8D3
:1000F00000F041F80AA090E8000C82448344AAF181
:100100000107DA4501D100F036F8AFF2090EBAE87E
:100110000F0013F0010F18BFFB1A43F0010318473B
:10012000F038000010390000103A24BF78C878C1B8
:10013000FAD8520724BF30C830C144BF04680C60ED
:10014000704700000023002400250026103A28BF35
:1001500078C1FBD8520728BF30C148BF0B60704739
:10016000642900F09980002070471FB500F0E5F881
:100170001FBD10B510BD00F022FA1146FFF7F5FFC4
:1001800001F068FD00F040FA03B4FFF7F2FF03BC92
:1001900000F04AFA0B49D1F800C04A685CF8043B09
:1001A0001068184442F8040B8C4528BFA1F1DC0C00
:1001B0008A4228BFA1F1DC02C1F800C04A6020F0E9
:1001C00000407047D0050020094880470948004793
:1001D000FEE7FEE7FEE7FEE7FEE7FEE7FEE7FEE7F7
:1001E000FEE7FEE704480549054A064B7047000054
:1001F000311C0008ED00000838060020380C0020F3
:1002000038080020380800200FB41CB5074B06AA98
:100210007B4469460090059800F087F90020694604
:1002200000F096F91CBC5DF814FB00003D030000D3
:100230002DE9F0410E460446002020622046E16888
:10024000884730B3252805D0D4E901219047206A9A
:10025000401CF2E7E168204600278847050018D0D7
:10026000A5F14100192802D820354FF40067324625
:10027000294620462760FFF773FF40B1012804D0CC
:10028000F61D26F007060836D8E7361DD6E72846BD
:10029000DAE7206ABDE8F0812DE9F0410646002446
:1002A00010687529314616A510D0AFF300800028DC
:1002B00002DA404213A507E031688A0701D512A58A
:1002C00002E0490704D511A5012401E0AFF3008045
:1002D00000210A2206F1240709E0B0FBF2FCB0FB82
:1002E000F2F302FB1C00303078541846491C0028F9
:1002F000F3D123462A463046BDE8F04100F0B7B8B6
:10030000000000002D0000002B0000002000000075
:100310000B4910B5A1F17C020A4CC2E93712372112
:1003200006E000EB104342F82130074B00FB03408E
:100330000B1EA1F10101F4DC10BD0120E8E7000073
:1003400070050020E119D666CD0D0100032A40F2A8
:10035000308010F0030C00F0158011F8013BBCF167
:10036000020F624498BF11F801CB00F8013B38BF7F
:1003700011F8013BA2F1040298BF00F801CB38BF8D
:1003800000F8013B11F0030300F0E780083AC0F0E9
:10039000088051F8043B083A51F804CBA0E8081053
:1003A000F5E7121D5CBF51F8043B40F8043BAFF386
:1003B0000080D20724BF11F8013B11F801CB48BFE0
:1003C00011F8012B24BF00F8013B00F801CB48BF16
:1003D00000F8012B70474FF000020429C0F0128092
:1003E00010F0030C00F01B80CCF1040CBCF1020FE8
:1003F00018BF00F8012BA8BF20F8022BA1EB0C01BD
:1004000000F00DB85FEAC17C24BF00F8012B00F8B2
:10041000012B48BF00F8012B70474FF0000200B5D8
:10042000134694469646203922BFA0E80C50A0E817
:100430000C50B1F12001BFF4F7AF090728BFA0E8C5
:100440000C5048BF0CC05DF804EB890028BF40F891
:10045000042B08BF704748BF20F8022B11F0804FD3
:1004600018BF00F8012B70477047704770472DE99F
:10047000F0470D4699469246044600F1240801686B
:10048000880604D5E06921F01001216000E0012018
:10049000A84201DD471B00E00027A1697A1902EBA1
:1004A0000900081AA0612078C00602D42046AFF3E4
:1004B0000080002608E0D4E901211AF806009047E0
:1004C000206A401C761C20624E45F4DB2078C00672
:1004D0000AD52046AFF3008006E0D4E901213020A0
:1004E0009047206A401C2062381EA7F10107F4DC07
:1004F00007E0D4E9012118F805009047206A401C64
:100500002062281EA5F10105F3DC2046AFF3008030
:100510002078000602D50220BDE8F0870120FBE725
:1005200001694A1C02610878704700B58FB0CDE9B7
:1005300001310021059105497944CDE903101146A7
:100540006846FFF775FE0FB000BD0000E5FFFFFF36
:100550000A6802F8010B0A60704710B5203AC0F033
:100560000B80B1E81850203AA0E81850B1E81850B4
:10057000A0E81850BFF4F5AF5FEA027C24BFB1E8F1
:100580001850A0E8185044BF18C918C0BDE8104062
:100590005FEA827C24BF51F8043B40F8043B08BF6B
:1005A0007047D20728BF31F8023B48BF11F8012B32
:1005B00028BF20F8023B48BF00F8012B7047754662
:1005C00000F02CF8AE4605006946534620F00700BF
:1005D000854618B020B5FFF705FEBDE820404FF076
:1005E00000064FF000074FF000084FF0000B21F01D
:1005F0000701AC46ACE8C009ACE8C009ACE8C009EA
:10060000ACE8C0098D46704710B50446AFF30080D2
:100610002046BDE81040FFF7B7BD00000048704716
:10062000D80500207047000001491820ABBEFEE746
:1006300026000200FEE770470848094902780B7857
:100640001A4307D101220270002008700549087082
:1006500005490870012000F087B80000060000205E
:100660000700002004000020050000200648018843
:1006700032390904090C018001D1FA2101804FF4BB
:10068000806000F071B800000A0000200648017880
:1006900011B1012902D003E0012100E00021017025
:1006A000022000F061B80000080000200749084A55
:1006B00008781378184306D1107001220A70054992
:1006C000087005490870082000F04EB807000020A7
:1006D0000600002004000020050000200749084A09
:1006E00008781378184306D1064B1870064B18701B
:1006F00001230B701070102000F036B804000020A9
:100700000500002006000020070000200749084AD5
:1007100008781378184306D1064B1870064B1870EA
:10072000107001200870202000F01EB80500002085
:1007300004000020060000200700002072B6FEE73B
:1007400070B5044600F00CF90546601C02D0044860
:100750000078044400F004F9401BA042FAD370BDB5
:100760000C00002070470000044910B50A680242DE
:1007700002D00860FFF7F6FF10BD0000140401402E
:100780002DE9F84FDFF8B8910024A9F1040B2346B6
:100790000F2709F1040AABF1040EC9E00125A540B9
:1007A0002A40AA427DD1674ED1F804C0ACEB0608BE
:1007B000B44532D014DCBCF1030F3AD009DCBCF1F3
:1007C000000F2AD0BCF1010F1CD0BCF1020F31D1B7
:1007D0001DE0BCF1110F17D0BCF1120F2AD119E0A6
:1007E000B8F5881F19D006DCB8F5803F15D0B8F5EC
:1007F000801F1FD111E0B8F5001F0ED0B8F5041FFF
:1008000018D10AE0CB6815E0CB681B1D12E0CB685D
:1008100008330FE0CB680C330CE08B682BB1012B55
:100820004FF0080303D0456104E0042302E00561B2
:1008300000E00023FF2A01D8064601E000F104068B
:100840004FEA840501D9A5F12005D6F8008007FA02
:1008500005FC28EA0C0803FA05F548EA0508C6F87D
:1008600000804D68ED0062D5374DAE6946F0010657
:10087000AE61AD6924F0030605F001050095334D26
:1008800006EB050CDCF80850A607360F07FA06F849
:1008900025EA0805DFF8B880404503D14FF000088D
:1008A00017E044E0DFF8AC80404502D14FF001088A
:1008B0000FE0DFF8A480404502D14FF0020808E0C5
:1008C000DFF89880404502D14FF0030801E04FF077
:1008D000040808FA06F848EA0508CCF808804D68CC
:1008E000D9F80060ED024D4601D5164300E096436D
:1008F0002E604D68DAF80060AD02554601D516430A
:1009000000E096432E604D68DBF80060AD035D4665
:1009100001D5164300E096432E604D68DEF8006076
:10092000ED03754601D5164300E096432E60641C26
:100930000D682A46E5407FF431AFBDE8F88F00002E
:1009400008040140000011100010024000000140A6
:1009500000080140000C014000100140001401405B
:1009600001488068704700000C00002070B504004A
:1009700025D094F83D00002520B984F83C5020464D
:1009800000F04EF9242084F83D002068016821F031
:10099000010101602068016841F4004101602068A4
:1009A000016821F40041016000F096FA4D4A616847
:1009B000914201D84C4900E04C49884201D20120C3
:1009C00070BD4B492368B0FBF1F15E6826F03F062D
:1009D0000E435E606368934206D94FF496735943A1
:1009E0004FF47A73B1FBF3F12368491C1E6A26F0B9
:1009F0003F06314319626168914210D84900401E98
:100A0000B0FBF1F2521CC2F30B02042A01D2042003
:100A100022E0B0FBF1F0401CC0F30B001CE0A26828
:100A2000F2B301EBC10303EB0116431EB3FBF6F374
:100A30005B1C43F480431B0549D092B301EBC10218
:100A400002EB0111401EB0FBF1F0401CC0F30B00A3
:100A500040F4804040F400402168CA694CF6FF73BE
:100A60009A431043C861D4E9071001432068026823
:100A700022F0C00211430160D4E903010143206860
:100A8000826848F2FF339A4311438160D4E905013B
:100A900008432168CA6822F0FF021043C86001E0E1
:100AA0000EE016E02068016841F001010160256454
:100AB000202084F83D00256384F83E50002070BD5E
:100AC00001EB4106431EB3FBF6F35B1CB3E70120C9
:100AD000C2E701EB4101401EB0FBF1F0401CC0F346
:100AE0000B00B7E7A086010080841E0000093D00CE
:100AF00040420F002DE9F84F1F4690468A460446B3
:100B0000DDF82890FFF72CFF054694F83D002028DB
:100B10007FD11923012240492046009500F048FC6E
:100B2000002876D194F83C00012872D0012084F886
:100B30003C0020680168C90703D1016841F0010148
:100B400001602068016821F400610160212084F8BF
:100B50003D00102084F83E0000262664C4F824805E
:100B60006785608D20852D48E0622B464A465146B8
:100B7000204600F0A3FB90B920684169806900908D
:100B800036E02A464946204600F0B8FC50B1206CB9
:100B9000042804D12068016841F40071016001203B
:100BA000BDE8F88F606A216800780861606A401CBF
:100BB0006062618D491E6185218D491E89B2218542
:100BC00022685369DB435B070BD451B10078106195
:100BD000606A401C6062608D401E6085208D401EF2
:100BE00020852A464946204600F0B6FB0028CED193
:100BF000208D0028C5D154F83D0B016841F40071E7
:100C00000160202004F81E09E67766770020C7E718
:100C1000FFE70220C4E70000020010000000FFFF11
:100C200010B586B0002100910191029103910068F6
:100C30000F4988421AD10F4CA06940F00800A0610A
:100C4000A069694600F008000490C02000901220BE
:100C50000190032003900848FFF792FDE06940F4FB
:100C60000010E061E06900F40010049006B010BDCF
:100C70000054004000100240000C0140024881680E
:100C800002781144816070470C000020074810B5BD
:100C9000016841F010010160032000F075F80E209A
:100CA00000F006F800F024F8002010BD00200240FB
:100CB00070B50D4D04464FF47A712878B1FBF0F011
:100CC0000A490968B1FBF0F000F0CCFA48B9102CE1
:100CD00007D200222146501E00F036F800206C603A
:100CE00070BD012070BD00000C0000201800002025
:100CF0000C4808B5816941F001018161816901F009
:100D000001010091C16941F08051C161C06900F0E9
:100D1000805000900448416821F0E06141F000718A
:100D2000416008BD0010024000000140002809DBBE
:100D300000F01F02012191404009800000F1E020F5
:100D4000C0F8001170470000F0B40E4B1B680C4651
:100D5000C3F30223C3F10705042D00D90425191D8F
:100D6000072901D2002300E0DB1E012606FA05F167
:100D7000491E214099409E40761E16403143F0BCEA
:100D800000F058BF0CED00E0064900F007020868CB
:100D90004FF6FF03184040EA0220034A1043086060
:100DA000704700000CED00E00000FA052DE9F04767
:100DB0000F46050061D0434E306800F00700B8428E
:100DC00009D2306820F0070038433060306800F006
:100DD0000700B84251D128683B4C810712D5400723
:100DE00003D5606840F4E06060602878000703D5B0
:100DF000606840F4605060606068A96820F0F000AE
:100E0000084360602878C00728D06868012810D09F
:100E10002168022810D0890700292EDA616821F0A4
:100E2000030101436160FFF79BFD804641F2883971
:100E30000DE021688903EFE78901EDE7FFF790FDF9
:100E4000A0EB0801494502D90320BDE8F08760689E
:100E5000696800F00C00B0EB810FEFD1306800F052
:100E60000700B8420BD9306820F0070038433060E3
:100E7000306800F00700B84201D00120E5E728788B
:100E8000400705D56068E96820F4E06008436060C9
:100E90002878000706D56068296920F4605040EA88
:100EA000C100606000F028F86168084AC1F30311CE
:100EB000515CC8400649086006480068FFF7F8FE24
:100EC0000020C2E70020024000100240F63900086E
:100ED00018000020100000200448054900684968F7
:100EE000044AC1F30221515CC84070471800002039
:100EF00000100240063A00080E4A51680E4801F000
:100F00000C03042B11D0082B0FD10C48C1F38343E1
:100F1000C903C05C0AD55168084AC1F34041921E1A
:100F2000515C054A5043B0FBF1F070470449484317
:100F3000704700000010024000127A00E6390008F5
:100F400000093D002DE9F84F040070D02078C04D15
:100F5000C00749D06868C0F38100012807D06868DD
:100F6000C0F38100022809D16868C00306D528684B
:100F7000800339D560680028E7D035E06068B0F5B7
:100F8000803F0BD010B1B0F5A02F11D0286820F40D
:100F900080302860286820F4802002E0286840F42F
:100FA00080302860606890B1FFF7DAFC06460AE0FE
:100FB000286840F480202860F0E700BFFFF7D0FCED
:100FC000801B642873D828688003F7D50CE0FFF7EE
:100FD000C7FC064605E000BFFFF7C2FC801B642883
:100FE000F0D828688003F7D420789A4E80074FF015
:100FF00001094FF0000839D5686810F00C0F07D0D0
:101000006868C0F38100022809D16868C00306D46B
:101010002868800714D52069012808D110E02069CC
:10102000B0B1C6F80090FFF79BFC074605E00AE167
:10103000FFF796FCC01B0228C4D828688007F7D5A4
:101040002868616920F0F80040EAC10028600DE0DE
:10105000C6F80080FFF784FC074604E0FFF780FC39
:10106000C01B022823D828688007F7D420780007FF
:101070002CD57948A169D9B1C0F80090FFF770FC70
:10108000074604E0FFF76CFCC01B02280FD8686A13
:101090008007F7D571484FF4FA510068B0FBF1F0C2
:1010A000009000BF0098411E0091FAD20EE080E04F
:1010B000C0F80080FFF754FC074604E0FFF750FC3F
:1010C000C01B022875D8686A8007F7D420784007CB
:1010D00060D5E8690027C00008D4E86940F0805076
:1010E000E861E869012700F0805000905C480168E1
:1010F000C90513D40168834641F480710160FFF78C
:101100002FFC824606E000BFFFF72AFCA0EB0A0096
:1011100064284ED8DBF80000C005F5D5E06801284A
:101120000AD008B1052813D0286A20F001002862EF
:10113000286A20F0040002E0286A40F001002862DA
:10114000E06841F2883B98B1FFF70AFC82460BE069
:10115000286A40F004002862EEE700BFFFF700FCB9
:10116000A0EB0A0159455AD8286A8007F6D50CE049
:10117000FFF7F6FB824605E0FFF7F2FBA0EB0A0162
:1011800059454CD8286A8007F6D41FB1E86920F089
:101190008050E861E06988B36968C1F38101022980
:1011A00044D00228C6F8608004D0FFF7D9FB04467B
:1011B00038E034E0FFF7D4FB074604E0FFF7D0FB4C
:1011C000C01B02282BD828688001F7D4206AB0F50C
:1011D000803F05D16868A16820F40030084368604A
:1011E000D4E908010843696821F474110843686070
:1011F000C6F86090FFF7B4FB044606E025E000BFA8
:10120000FFF7AEFB001B022809D828688001F7D53C
:101210001BE000BFFFF7A4FB001B022802D903203C
:10122000BDE8F88F28688001F4D40EE00128F7D0DB
:101230006868226A00F48031914204D1616A00F446
:101240007010884201D00120EAE70020E8E70000A2
:101250000010024000004242800442421800002078
:101260000070004010B5401EB0F1807F01D3012016
:1012700010BD4FF0E02460610F21601700F0DAFC30
:101280000020A06107202061002010BDFEE701685A
:101290004A69D24352050FD46FF480624A6100213B
:1012A00040F8301F202242738173026942F0040229
:1012B000026101730120704700207047F8B50446B1
:1012C000C06A1E460D461746082807D0012805D0DB
:1012D00010F5803F02D0206B122804D120680168ED
:1012E00041F480710160134600224FF00111204645
:1012F000009600F05DF840B120680068C00502D596
:101300004FF4007020640320F8BD2069B0F5804FD1
:101310000ED00620216800EAD51040F0F0000861E8
:1013200033463A460B49204600F08AF878B902E085
:1013300005F0FE0000E0E8B2216808610549334687
:101340003A46891F204600F07BF80028DCD00120B7
:10135000F8BD00000800010070B516460D460446B1
:101360001EE02046FFF793FF08B1012070BD681C06
:1013700016D0FFF7F5FA801BA84200D885B920687F
:101380004069C04340070BD5002044F8300F2021AE
:101390006173A073216941F0200121612073E4E7AA
:1013A00020684069C0434007DBD4002070BD0000C6
:1013B0002DE9F047984617460D460446C1F3074607
:1013C000DDF820902AE000BFB8F1FF3F26D0FFF7FC
:1013D000C7FAA0EB0901414502D8B8F1000F1DD1B1
:1013E0002068012E16D0806925EA00000004000C58
:1013F00012D00020B84211D1002044F8300F202133
:101400006173A073216941F02001216120730120E3
:10141000BDE8F0874069E7E70120EBE72068012E8F
:101420000AD0806925EA00000004000C06D00020E4
:10143000B842C9D00020EBE74069F3E70120F7E7A5
:101440002DE9F047984616460D4604464FF0000930
:101450004FF0200AC1F3074723E020684069C043EA
:10146000400515D42068016841F4007101602168CD
:101470006FF480604861C4F8309084F83DA084F82F
:101480003E90216C41F00401216484F83C9021E0FD
:10149000701C06D0FFF764FAA0EB0800B04203D836
:1014A00016B1012F1FD021E02068012F15D08069CF
:1014B00025EA00000004000C18D000BF44F8309F5B
:1014C00084F80DA084F80E90216941F0200121617B
:1014D00084F80C900120BDE8F087406925EA0000FF
:1014E0000004000CEAD12068406901E020688069AE
:1014F00025EA00000004000CAFD1ECE770B51646F9
:101500000D4604461EE02046FFF7C1FE08B101204B
:1015100070BD681C16D0FFF723FA801BA84200D8C4
:1015200085B920684069C04300060BD5002044F807
:10153000300F20216173A073216941F020012161E6
:101540002073E4E720684069C0430006DBD4002034
:1015500070BD000000B585B0002003902A48816965
:1015600041F020018161816901F0200104918169CC
:1015700041F008018161816901F0080104918169EC
:1015800041F0040181618069694600F00400049023
:1015900040F23B4000901D480190012002901C4801
:1015A000FFF7EEF800220F210620FFF7CDFB062003
:1015B000FFF7BCFB00220F210720FFF7C5FB072028
:1015C000FFF7B4FB00220F210920FFF7BDFB092024
:1015D000FFF7ACFB00220F210A20FFF7B5FB0A2022
:1015E000FFF7A4FB00220F211720FFF7ADFB172008
:1015F000FFF79CFB00220F212820FFF7A5FB2820E6
:10160000FFF794FB05B000BD001002400000211060
:10161000000C01400D4810B50B4901600C494160B8
:1016200000214FF480428160C0E903124161816171
:10163000C1610162FFF79AF9002803D0BDE81040AC
:10164000FFF77CB810BD000000540040A00400204B
:10165000801A0600FEE7FEE71CB55478CDE900438A
:101660001378526800F0A2F91CBD00002DE9F84F74
:10167000044617463D481E460D46BC4210D1B542B1
:101680000AD945702E461D4606E0294620460A9A8C
:1016900000F0F4F96D1CEDB2B542F6D9BDE8F88F53
:1016A000B5420FD1BC420AD944702746144606E021
:1016B000294620460A9A00F0E1F9641CE4B2BC42D3
:1016C000F6D9EBE7381B711B002801DD012300E090
:1016D00000234FF0FF3202EB43030093002901DDAA
:1016E000012300E00023A846002502EB430B00285D
:1016F00000DA40428146002900DA49428A46D14553
:1017000016DC2FE008F0FF01E0B20A9A00F0B6F90B
:1017100005EB0A0005B2B9EB450F06DC08EB0B0040
:101720000FFA80F8A5EB090005B20098204404B236
:10173000BC42E7D1B2E700BF08F0FF01E0B20A9A6D
:1017400000F09CF905EB090005B2BAEB450F05DC8A
:101750000098204404B2A5EB0A0005B208EB0B0088
:101760000FFA80F8B045E7D198E7000000000020AC
:101770002DE9F8411C46079E851888460746EAB2BF
:101780000B460096FFF772FF4444E3B2EAB2E1B2BF
:1017900038460096FFF76AFF3A46E3B241461046E4
:1017A0000096FFF763FFE3B2EAB2E8B24146009663
:1017B000FFF75CFFBDE8F88110B5AE2000F096F8A9
:1017C000202000F093F8102000F090F8B02000F0F6
:1017D0008DF8C82000F08AF8002000F087F810206B
:1017E00000F084F8402000F081F8812000F07EF8BD
:1017F000DF2000F07BF8A12000F078F8A62000F0B0
:1018000075F8A82000F072F83F2000F06FF8A420CF
:1018100000F06CF8D32000F069F8002000F066F8C2
:10182000D52000F063F8F02000F060F8D92000F037
:101830005DF8222000F05AF8DA2000F057F8122064
:1018400000F054F8DB2000F051F8202000F04EF8B2
:101850008D2000F04BF8142000F048F800F008F854
:1018600000F024F9BDE81040AF2000F03FB80000C0
:101870004FF480610148FEF7AEBD00009D000020DE
:101880003CB51C78059D203ACDE900455D68E41D16
:101890005B78E408544303FB045200F087F83CBD36
:1018A0002DE9F8411E46154688460446079F09E083
:1018B0003346414620460097FFF7E2FF70786D1CE3
:1018C0002044C4B22A78002AF2D1BDE8F881000091
:1018D00008B54FF0FF3200920B46024678210248CD
:1018E000FFF708F908BD0000A00400200249487075
:1018F00002210148FFF7ECBF020000202DE9FC4166
:1019000080460720CDE9000301F00704CD08164604
:1019100002FA04F01F46C2B223464146284600F0B0
:1019200089F8002C0CD0601EC0B2CDE90007C4F1CC
:10193000080026FA00F2681C0023414600F07AF8FD
:10194000BDE8FC812DE9FC4301F007061446CD08F3
:101950009846814601F0070106EB080204FA01F0FF
:10196000099F082A16D90721CDE90017C2B23346CC
:101970004946284600F05EF808EB06000938C0B278
:10198000CDE90007C6F1080024FA00F2681C002324
:10199000494607E0521ED1B2CDE90017C2B2334624
:1019A0004946284600F046F8BDE8FC832DE9FF4F84
:1019B00082B01D460F989346C70800F0070088467E
:1019C0000026019018E0029800240BEB060A00EBB9
:1019D00006090DE004FB05F0109B10F80A2008EB47
:1019E000C400C1B209F0FF00FFF788FF641CE4B235
:1019F000BC42EFD3761CF6B2AE42E4D30198002885
:101A000015D005FB07F6002408EBC7070DE010987A
:101A10000090311902981BF801202044F9B2C0B29D
:101A2000019BFFF78FFF641CE4B2AC42EFD306B01A
:101A3000BDE8F08FF0B50828DDE9056419D28029EA
:101A400017D20CB1D243D2B2FF25761C05FA06F6A6
:101A5000C3F10803084F46EA0204DD4007EBC01754
:101A6000044B785CB2432C43AA4320401A701043C5
:101A70007854F0BD000000209D00002030B5802883
:101A80000ED240290CD201F007040123064DA340D9
:101A9000C90805EBC111002A0A5C02D09A430A5416
:101AA00030BD1A43FBE700009D00002070B5104DCB
:101AB00040200024287005F1810600BF04F1B00029
:101AC000C0B2FFF713FF0020FFF710FF1020FFF751
:101AD0000DFF06EBC4118022681CFEF737FC812144
:101AE0000348FFF7F5FE641CE4B2082CE6D370BD92
:101AF0001C0000202DE9F04391460D460446FFF7F7
:101B0000BDFF6E1E04F10108F1B208F0FF004A4665
:101B1000FFF7B4FF671EF1B2F8B24A46FFF7AEFF17
:101B200008F0FF004A462946FFF7A8FFF8B24A46E8
:101B30002946FFF7A3FF6D1CE9B24A462046FFF78E
:101B40009DFFF1B24A462046BDE8F043FFF796BF3D
:101B50002DE9F04792460C460546FFF78FFF04F14A
:101B6000010905F1010809F0FF0108F0FF005246E4
:101B7000FFF784FF661EF1B208F0FF005246FFF740
:101B80007DFF6F1E09F0FF01F8B25246FFF776FFA6
:101B9000F1B2F8B25246FFF771FF08F0FF0052466B
:101BA0002146FFF76BFFF8B252462146FFF766FF6A
:101BB00009F0FF0152462846FFF760FFF1B2524696
:101BC0002846BDE8F047FFF759BF70477047FFF759
:101BD00055B830B58FB028216846FEF71EFC142199
:101BE0000AA8FEF71AFC01210804CDE90010002420
:101BF000029402250491CDE907504FF4E0100990BA
:101C00006846FFF79FF908B172B6FEE70F20CDE9ED
:101C10000A054FF48060CDE90C4002210AA80E9419
:101C2000FFF7C4F8002801D072B6FEE70FB030BD50
:101C30007047FEE70907090E002804DB00F1E020E9
:101C400080F80014704700F00F0000F1E02080F8E9
:101C5000141D70472DE9F04FCFB0FFF717F8FFF7CD
:101C6000B8FFFFF777FCFFF7D5FC1420FEF768FDFF
:101C7000FFF7A2FD00203B904C90642101A8FEF7E5
:101C8000CCFB64211AA8FEF7C8FB0424052638946F
:101C90000D27ADF80460ADF86870ADF8066010214E
:101CA000ADF86A10ADF808601321ADF86C10ADF80E
:101CB0000A601620ADF86E00FEF76CFA282190FB42
:101CC000F1F201FB120000EB4000401DC5B2FEF72F
:101CD00061FAC11700EB117121F00F01401A00EBFE
:101CE00040000D3000F0FF09DFF8FCA3FFF7C0FD56
:101CF0000023FE4A19461846FFF7AEFC4FF00008D5
:101D0000FB4BFCA241463420CDF80080FFF7C8FD14
:101D1000F74BFAA220214020CDF80080FFF7C0FD4C
:101D20009AF80400012802D0FFF7C0FEDEE7FFF7B3
:101D30009FFD4FF000080DF1680B00BF01AA1BF8D2
:101D4000181012F818000022FFF7D4FE08F1010065
:101D500080B234E3EBA13CA83B9AFEF755FA4FF072
:101D60000008EB4B3CAA41460620CDF80080FFF767
:101D700097FD35237D2209210120CDF80080FFF752
:101D8000F7FC33237B220A210220CDF80080FFF7E5
:101D9000EFFC312379220B210320CDF80080FFF7DF
:101DA000E7FC9AF8000001287ED19AF80400012887
:101DB0007AD10320FEF7C4FC9AF80010012973D1F0
:101DC0009AF80400D04601286ED1002249462846E0
:101DD000FFF7BEFEAE423DD3681C86423AD84F455F
:101DE00038D309F10100874234D8012249462846F8
:101DF000FFF7AEFEFEF7CEF9282190FBF1F201FBD2
:101E0000120000EB4000401DC5B2FEF7C3F9C11738
:101E100000EB117121F00F01401A00EB40000D3072
:101E200000F0FF09AE4208D3681C864205D84F4532
:101E300003D309F101008742DCD900224946284634
:101E4000FFF786FE3898401CC0B238903B98401C83
:101E500080B23B90F61CF6B27D2E00D1052601AA79
:101E600002EB440010F8020C3A900BEB440010F81F
:101E7000020C39900020611E15E0884204D1ADF8B3
:101E80000460ADF868700CE0231A01AA02EB43026B
:101E900032F804CC22F802CC0BEB430232F8043DBA
:101EA0005380401C80B200E032E0A042E5D3B8F895
:101EB0000600FEF745FC38984FF00008401E4B9096
:101EC00014E000BF01A81BF8181010F81800002239
:101ED000FFF710FE4B98804504D1DDE9391001224F
:101EE000FFF708FE08F101001FFA80F8A045E9D3CA
:101EF000389884420CD2641CE4B201A901EB44017D
:101F00003A9821F8020C0BEB4401399821F8020CA5
:101F10009AF8010001286FD19AF8040001286BD1CA
:101F20000320FEF70DFC9AF80110012964D19AF8FC
:101F30000400D04601285FD1002249462846FFF719
:101F400007FEAE423ED3681C86423BD84F4539D38C
:101F500009F10100874235D8012249462846FFF79A
:101F6000F7FD00BFFEF716F9282190FBF1F201FB07
:101F7000120000EB4000401DC5B2FEF70BF9C1177F
:101F800000EB117121F00F01401A00EB40000D3001
:101F900000F0FF09AE4208D3681C864205D84F45C1
:101FA00003D309F101008742DCD9002249462846C3
:101FB000FFF7CEFD3898401CC0B238903B98401CCB
:101FC00080B23B90F61EF6B2022E00D17A2601AB0B
:101FD00003EB440010F8020C3A900BEB440010F8AD
:101FE000020C39900020611E16E0884205D1ADF840
:101FF0000460ADF868700DE040E0231A01AA02EB1E
:10200000430232F804CC22F802CC0BEB430232F844
:10201000043D5380401C80B2A042E6D3B8F80600CD
:10202000FEF78EFB38984FF00008401E4B9013E0EF
:1020300001AA1BF8181012F818000022FFF75AFD29
:102040004B99884504D1DDE939100122FFF752FD93
:1020500008F101001FFA80F8A045E9D338988442BE
:102060000CD2641CE4B201A901EB44013A9821F8B6
:10207000020C0BEB4401399821F8020C9AF802008B
:1020800001287DD19AF80400012879D10320FEF7B8
:1020900057FB9AF80210012972D19AF80400D04631
:1020A00001286DD1002249462846FFF751FDAE4276
:1020B00055D3681C864252D84F4550D309F10100D0
:1020C00087424CD8012249462846FFF741FD00BF10
:1020D000FEF760F8282190FBF1F201FB120000EB03
:1020E0004000401DC5B215E004000020DC390008A6
:1020F000CC3300084772656564790000736E616BCC
:102100006500000053434F5245203A2025640000EB
:1021100068260008FEF73EF8C11700EB117121F0A8
:102120000F01401A00EB40000D3000F0FF09AE42F5
:1021300008D3681C864205D84F4503D309F1010036
:102140008742C5D9002249462846FFF701FD389845
:10215000401CC0B238903B98401C80B23B90FF1EA0
:10216000FFB20A2F00D13A2701AA02EB440010F86F
:10217000020C3A900BEB440010F8020C399000E08E
:102180004AE00020611E15E0884204D1ADF80460E9
:10219000ADF868700CE0221A01AB03EB42030BEBC5
:1021A000420233F804CC23F802CC32F8043D5380C9
:1021B000401C80B2A042E7D3B8F80600FEF7C0FA90
:1021C00038984FF00008401E4B9013E001A81BF810
:1021D000181010F818000022FFF78CFC4B99884566
:1021E00004D1DDE939100122FFF784FC08F1010078
:1021F0001FFA80F8A045E9D3389884420CD2641CB9
:10220000E4B201A901EB44013A9821F8020C0BEB6E
:102210004401399821F8020C9AF8031001296FD172
:102220009AF80400D04601286AD10320FEF788FA04
:1022300098F80310012963D198F8040001285FD1B0
:10224000002249462846FFF783FCAE423ED3681C75
:1022500086423BD84F4539D309F10100874235D832
:10226000012249462846FFF773FC00BFFDF792FFA5
:10227000282190FBF1F201FB120000EB4000401D11
:10228000C5B2FDF787FFC11700EB117121F00F01F7
:10229000401A00EB40000D3000F0FF09AE4208D3B9
:1022A000681C864205D84F4503D309F101008742D7
:1022B000DCD9002249462846FFF74AFC3898401CE2
:1022C000C0B238903B98401C80B23B90FF1CFFB2DC
:1022D0003D2F00D10D2701AA02EB440010F8020C9B
:1022E0003A900BEB440010F8020C39900020611E6C
:1022F00016E0884205D1ADF80460ADF868700DE0D5
:1023000040E0221A01AB03EB42030BEB420233F82D
:1023100004CC23F802CC32F8043D5380401C80B238
:10232000A042E6D3B8F80600FEF70AFA38984FF054
:102330000008401E4B9013E001A81BF8181010F87D
:1023400018000022FFF7D6FB4B99884504D1DDE940
:1023500039100122FFF7CEFB08F101001FFA80F8C7
:10236000A045E9D3389884420CD2641CE4B201A998
:1023700001EB44013A9821F8020C0BEB4401399827
:1023800021F8020C012001A95A460EE031F8103064
:10239000B34208D132F81030BB4204D14C98401CF3
:1023A00080B24C9004E0401C80B2A042EED34C9826
:1023B000012809D0FFF77AFBFFF75AFA0020804680
:1023C000A042FFF4BBACC5E4FFF752FA0023174A62
:1023D00019461846FFF740F90024154B15A221466F
:1023E00040200094FFF75CFAAFF2E0214DA83B9A41
:1023F000FDF70AFF0E4B4DAA202158200094FFF74D
:102400004FFAFFF753FB41F28830FEF799F9FFF7D7
:102410002FFA0023094A19461846FFF71DF9FFF75E
:1024200045FB4FB00020BDE8F08F0000DC3900080C
:10243000CC33000853434F5245000000D437000806
:102440000000000000000000002F00000000070056
:10245000070000147F147F1400242A7F2A120062D0
:10246000640813230036495522500000050300007C
:1024700000001C224100000041221C000014083E04
:1024800008140008083E0808000000A060000008CA
:10249000080808080000606000000020100804021E
:1024A000003E5149453E0000427F400000426151DC
:1024B0004946002141454B31001814127F10002776
:1024C00045454539003C4A49493000017109050339
:1024D00000364949493600064949291E000036366A
:1024E00000000000563600000008142241000014CD
:1024F00014141414000041221408000201510906AA
:1025000000324959513E007C1211127C007F49492A
:102510004936003E41414122007F4141221C007F5B
:1025200049494941007F09090901003E4149497A69
:10253000007F0808087F0000417F410000204041E3
:102540003F01007F08142241007F40404040007F4F
:10255000020C027F007F0408107F003E4141413E93
:10256000007F09090906003E4151215E007F0919DB
:1025700029460046494949310001017F0101003FD8
:102580004040403F001F2040201F003F4038403F58
:1025900000631408146300070870080700615149BC
:1025A000454300007F41410000552A552A5500004F
:1025B00041417F00000402010204004040404040CD
:1025C000000001020400002054545478007F484465
:1025D000443800384444442000384444487F00389C
:1025E0005454541800087E0901020018A4A4A47CC5
:1025F000007F080404780000447D4000004080848F
:102600007D00007F102844000000417F4000007CD6
:1026100004180478007C08040478003844444438E2
:1026200000FC242424180018242418FC007C08042E
:10263000040800485454542000043F444020003C07
:102640004040207C001C2040201C003C4030403C8E
:10265000004428102844001CA0A0A07C004464541E
:102660004C441414141414140806000040240008E8
:10267000000000000000000000000000000000005A
:10268000000000000000000000000000000000004A
:10269000000000000000000000F0F0F0000000006A
:1026A0000000000000017F010000000000000000A9
:1026B000001C1C1C0000000000008060301C8C60AE
:1026C000301C0C00000000000000000000000000B2
:1026D000000000000000000000000000000000E01A
:1026E0000000000000E000000086E69F86868686E7
:1026F000E69F860000011F01010101011F01010089
:10270000000080C06020F820E0C000000000030747
:102710000C18FF70E18100000000070F10107F10FF
:102720000F0700008060206080000000E0200000B3
:102730000F3020309F70DC371030C0000000100ECA
:1027400003000718101807000000C02020E0C00098
:102750000000000080E01F38E88703C43C0400004C
:10276000070F1810100B070D1010080000808C4C7C
:102770003800000000000000000000000000000021
:102780000000000000000000000000000000000049
:1027900000000000000080E030080400000000009D
:1027A00000FEFF0100000000000000000000030F19
:1027B0001820400000040830E08000000000000005
:1027C0000000000001FFFE00000000000040201893
:1027D0000F03000000000000000000000000C00027
:1027E00000000000004266663C18FF183C66664226
:1027F00000000000000003000000000000000000D6
:102800000000800000000000001010101010FF10E9
:102810001010101000000000000003000000000075
:1028200000000000000000000000000000000000A8
:10283000000000000000000000808C4C3800000008
:102840000000000000000000000000000000000088
:1028500000101010101010101010100000000000D8
:102860000000000000000000000000000000000068
:102870000000000000000000000000000000000058
:1028800000001C1C1C0000000000000000000000F4
:1028900000000000E0380C000000000080701C0305
:1028A000000000000060380E010000000000000081
:1028B000000080C060202060C080000000FEFF019A
:1028C0000000000001FFFE000001070E18101018A4
:1028D0000E0701000000808080C0E00000000000C2
:1028E0000000000000FFFF000000000000001010CA
:1028F000101F1F10101000000080402020202060BA
:10290000C080000000030300804020381F07000043
:10291000001C1A1918181818181F00000080C02071
:10292000202060C080000000000303001010182F5A
:10293000E780000000070F10101010180F070000AC
:10294000000000000000C0E0F000000000C0B088FF
:10295000868180FFFF808000000000000010101FB3
:102960001F1010000000E0606060606060600000A8
:1029700000003F1008080818F0E0000000070B10E6
:102980001010101C0F030000000080C04020202009
:10299000E0C0000000FCFF211008080818F0E0006B
:1029A0000001070C18101010080F03000000C0E011
:1029B0006060606060E06000000003000000E018FC
:1029C0000700000000000000001F1F0000000000C2
:1029D0000080C0602020202060C080000087EF2C95
:1029E0001818303068CF830000070F08101010103F
:1029F000180F07000000C0C020202020C080000069
:102A0000001F3F604040402010FFFE0000000C1CF3
:102A1000101010080F03000000000000000000006C
:102A20000000000000000000000E0E0E000000007C
:102A300000000000001C1C1C000000000000000042
:102A4000000000000000000000000000000C0C006E
:102A500000000000000000000058380000000000E6
:102A6000000000000000008040201000000010283E
:102A7000448201000000000000000000000001028C
:102A8000040810000000000000000000000000002A
:102A9000008484848484848484848400000000000E
:102AA0000000000000000000000010204080000036
:102AB0000000000000000000000001824428100017
:102AC00000001008040201000000000000C02020E7
:102AD0001010101030E0C0000003030000F01008D8
:102AE0000C070300000000001C1C1C00000000007C
:102AF000000000C0406020202040C00000FCFF011A
:102B0000F00E03C1FE03807F0001070E08111110B3
:102B1000110904020000000080E0E0000000000055
:102B20000000807C4340477FF880000010181F1091
:102B300000000000131F1C1020E0E0202020206077
:102B4000C080000000FFFF10101010182FE7800059
:102B5000101F1F1010101010180F0700000080C069
:102B6000402020202060E00000FCFF010000000069
:102B7000000001000001070E1810101008040300E7
:102B800020E0E02020202040C080000000FFFF0067
:102B90000000000001FFFE00101F1F101010180899
:102BA0000E07010020E0E02020202020206080008F
:102BB00000FFFF101010107C00000000101F1F10FD
:102BC000101010101018060020E0E0202020202017
:102BD0006060800000FFFF101010107C00000100FA
:102BE000101F1F100000000000000000000080C047
:102BF0006020202040E0000000FCFF010000404079
:102C0000C0C140400001070E181010100F0F000047
:102C100020E0E0200000000020E0E02000FFFF10A6
:102C20001010101010FFFF00101F1F1000000000F8
:102C3000101F1F100000202020E0E02020200000B6
:102C40000000000000FFFF00000000000000101066
:102C5000101F1F101010000000000000202020E0B6
:102C6000E020202000000000000000FFFF00000026
:102C70000060E0808080C07F3F00000020E0E02016
:102C8000000020A06020200000FFFF30187CE3C07F
:102C900000000000101F1F10000001131F1C18105F
:102CA00020E0E020000000000000000000FFFF0026
:102CB0000000000000000000101F1F101010101076
:102CC0001018060020E0E0E000000000E0E0E02056
:102CD00000FF013FFEC0E01E01FFFF00101F1000BB
:102CE000031F0300101F1F1020E0E0C000000000C1
:102CF0000020E02000FF0003071C78E08000FF00B8
:102D0000101F100000000000030F1F00000080C013
:102D100060202060C080000000FEFF010000000075
:102D200000FFFE000001070E181010180C0701002C
:102D300020E0E0202020202060C0800000FFFF2055
:102D400020202020301F0F00101F1F100000000047
:102D500000000000000080C060202060C0800000F3
:102D600000FEFF010000000000FFFE000001070E52
:102D70001111133C7C67210020E0E020202020205E
:102D800060C0800000FFFF101030F0D0080F070077
:102D9000101F1F10000000030F1C10100080C060E7
:102DA000202020204040E00000070F0C1818303091
:102DB00060E08100001F0C0810101010180F0700B1
:102DC0008060202020E0E0202020608001000000C2
:102DD00000FFFF000000000100000000101F1F1096
:102DE0000000000020E0E020000000000020E020C3
:102DF00000FFFF00000000000000FF0000070F18A8
:102E000010101010100807002060E0E02000000003
:102E100020E060200000077FF88000807C03000035
:102E200000000000071F1C070000000020E0E02059
:102E300000E0E0200020E0200007FFF8E01FFFFC9A
:102E4000E01F00000000031F0300011F030000003B
:102E5000002060E0A0000020E060200000000003EF
:102E60008F7CF8C6010000000010181E1300011727
:102E70001F1810002060E0E02000000020E060202B
:102E8000000001073EF8E0180700000000000010F5
:102E9000101F1F101000000000806020202020A0C4
:102EA000E0E0200000000000C0F03E0F0300000042
:102EB00000101C1F17101010101806000000000052
:102EC00000FC0404040404000000000000FF0000F3
:102ED0000000000000000000007F40404040400033
:102EE000000010E0000000000000000000000000F2
:102EF000031C6080000000000000000000000003D0
:102F00000C70800000000404040404FC00000000B5
:102F100000000000000000FF000000000000404032
:102F20004040407F0000000000000010080C040C2E
:102F30000810000000000000000000000000000079
:102F40000000000000000000000000000000000081
:102F50000000000000000000000000000000000071
:102F60000000000080808080808080808080808061
:102F70000000000404080800000000000000000039
:102F80000000000000000000000000000000000041
:102F90000000000000000000000000000000000031
:102FA000000098D844642424FCF80000000F1F1887
:102FB000101010081F1F10180020E0F00000000083
:102FC000000000000000FFFF180804040CF8F000E7
:102FD00000001F0F18101010180F03000000000051
:102FE000000000000000000000E0F8180404043CA9
:102FF0003800000000030F0C10101010080600002D
:103000000000000000000020E0F0000000E0F81CDC
:1030100004040408FFFF000000030F18101010083C
:103020001F0F08000000000000000000000000006A
:103030000000E0F8484444444C7870000000030F5E
:103040000C181010100804000000000080C0602060
:1030500020E0C00000040404FFFF04040404000096
:10306000000010101F1F10101000000000000000D2
:103070000000000000000000000070F88C04048CC8
:10308000F874040C007076CF8D8D8D89C87870002F
:103090000020E0F000000000000000000000FFFF42
:1030A00008040404FCF8000000101F1F10000010AA
:1030B0001F1F100000000000006060000000000002
:1030C0000000040404FCFC000000000000001010DC
:1030D000101F1F1010100000000000000000006012
:1030E0006000000000000000040404FCFC0000007C
:1030F0000000C0C08080C07F3F0000000020E0F0E2
:1031000000000000000000000000FFFF80C0F41C71
:103110000404000000101F1F1100031F1C101000EA
:103120000000202020E0F00000000000000000006F
:1031300000FFFF000000000000001010101F1F1013
:10314000101000000000000000000000000000005F
:1031500004FCFC0804FCFC0804FCFC00101F1F100D
:10316000001F1F10001F1F100000000000000000C3
:10317000000000000004FCFC08080404FCF8000047
:1031800000101F1F100000101F1F10000000000083
:10319000000000000000000000E0F0180C04040C27
:1031A00018F0E00000030F0C101010100C0F0300BB
:1031B0000000000000000000000000000004FCFC13
:1031C000080404040CF8F0000080FFFF8890101041
:1031D0001C0F0300000000000000000000000000C1
:1031E00000E0F81C04040408F8FC000000030F18B9
:1031F00010109088FFFF8000000000000000000019
:1032000000000000040404FCFC100804040C0C0082
:103210001010101F1F101010000000000000000010
:10322000000000000000000000003078CCC484845E
:10323000840C1C0000001E1810101011190F06003D
:103240000000000000C000000000000000040404B2
:10325000FFFF040404000000000000000F1F101016
:10326000100C000000000000000000000000000042
:103270000004FCFE00000004FCFE000000000F1F24
:10328000181010081F0F08000000000000000000C8
:103290000000000000040C3CFCC40000C43C0C0412
:1032A00000000000010F1E0E0100000000000000E1
:1032B0000000000000000000043CFCC400E47CFCB2
:1032C00084807C040000071F070000071F07000020
:1032D0000000000000000000000000000004041CCA
:1032E0007CE4C0341C0404000010101C1601131FE1
:1032F0001C1810000000000000000000000000008A
:1033000000040C3CFCC400C43C0404000000C08069
:10331000C1370E01000000000000000000000000A6
:103320000000000000001C0404C4F47C1C04000025
:103330000000101C1F17111010180E0000000000D4
:10334000000000F80C04000000000000001028EF4E
:1033500000000000000000000000003F604000008E
:10336000000000000000FF0000000000000000005E
:103370000000FF0000000000000000000000FF004F
:10338000000000000000040CF80000000000000035
:1033900000000000EF281000000000000000406066
:1033A0003F000000000000000018060202040810A0
:1033B0002020300800000000000000000000000095
:1033C000000000000000000000000000180C0000D9
:1033D000702600080000000000000000000000004F
:1033E00000000000000000000000000000000000DD
:1033F00000000000000000000000000000000000CD
:1034000000000000000000000000000000000000BC
:1034100000000000000000000000000000000000AC
:10342000000000000000000000000000000000009C
:10343000000000000000000000000000000000008C
:10344000000000000000000000000000000000007C
:1034500000000000000000000000000000808080EC
:10346000800000000000000000000080808000005C
:10347000000000000000008080000000808000004C
:1034800000000000008080808080808000000000BC
:1034900000000000000000000000000080808000AC
:1034A000000000000000000080800000008080001C
:1034B000000000000000808080808080800000008C
:1034C00000000000808080808080000000000000FC
:1034D0000000000000000000000000060F101014A3
:1034E0001C0000000000000000001F0404041F0076
:1034F000000000000000001F1F030F031F1F00003B
:1035000000000000001F1F1616161010000000001B
:10351000000000000000000000000F0F1010100F4E
:103520000F0000000000000003070C1C0C07030044
:103530000000000000001F1F1616161010000000EB
:10354000000000001F1F040C1C13130000000000EB
:10355000000000000000000000000000000000006B
:10356000000000000000000000000000000000005B
:10357000000000000000000000000000000000004B
:10358000000000000000000000000000000000003B
:10359000000000000000000000000000000000002B
:1035A000000000000000000000000000000000001B
:1035B000000000000000000000000000000000000B
:1035C00000000000000000000000000000000000FB
:1035D00000000000000000000000000000000000EB
:1035E00000000000000000000000000000000000DB
:1035F00000000000000000000000000000000000CB
:10360000000000000000000000F8F8F8F8F87878F2
:10361000783878F8F8F878F8F8F8F8F8000000004A
:10362000000000000000000000000000000000009A
:10363000000000000000000000000000000000008A
:10364000000000000000000000000000000000007A
:10365000000000000000000000000000000000006A
:10366000000000000000000000000000000000005A
:10367000000000000000000000000000000000004A
:10368000000000000000000000FFFFFFFF80003E80
:103690003E383C3E3F3E0080DFFFFFFF0000000061
:1036A000000000000000000000000000000000001A
:1036B000000000000000000000000000000000000A
:1036C00000000000000000000000000000000000FA
:1036D00000000000000000000000000000000000EA
:1036E00000000000000000000000000000000000DA
:1036F00000000000000000000000000000000000CA
:10370000000000000000000000070F0F0F0F0F0F58
:103710000F0F0F0F0F0F0F0F0F0F0F0F00000000F5
:103720000000000000000000000000000000000099
:103730000000000000000000000000000000000089
:103740000000000000000000000000000000000079
:103750000000000000000000000000000000000069
:103760000000000000000000000000000000000059
:103770000000000000000000000000000000000049
:103780000000000000000000000000000000000039
:103790000000000000000000000000000000000029
:1037A0000000000000000000000000000000000019
:1037B0000000000000000000000000000000000009
:1037C00000000000000000000000000000000000F9
:1037D0000000000080400000D4330008000000001A
:1037E000000000000000000000000080808080E0F9
:1037F000E0E0E0E0E0E0E0E0E08080808080000069
:1038000000000000000000000000000000000000B8
:1038100000000000000000000000000000000000A8
:10382000000000000000000060FEFEFFFFFFFFFF41
:10383000FFBF9F2FAF4FBFFFFFFFFFFFFFFFFFFE49
:10384000FEF8F8E0E08080000000000000000000CA
:103850000000000000000000000000000000000068
:103860000022121214080888888889C9CBEBFFFF50
:10387000FFFFFFFFFFFFFFFFFFFFFFFFFFFFFFFF58
:10388000FFFFFFFFFFFFFFFEFEF8F8808000000053
:103890000000000000000000000000000000000028
:1038A0000000000000000000010101010303070700
:1038B00007070707070707070707070101010107B0
:1038C00007FFFFFFFFFFFFFFFFFFFFFFFF000000FD
:1038D00000000000000000000000000000000000E8
:1038E00000000000000000000000000000000000D8
:1038F0000000000080E0E0F0F8F8F8FCFEFEFEFEBC
:10390000FEFFFFFFFFFFFFFFFFFFFFFFFFF8F8E0F5
:10391000E0808000000000000000000000000000C7
:10392000008080808080000000000000000000E037
:10393000E0F8F8FFFFFFFFFFFFFFFF7F7FFFFFFFC4
:10394000FFFFFFFFFFFFFFFF7F7FFFFFFFFFFFFF87
:10395000FFFFFFFEFEF8F000000000000000000086
:10396000000707070F1F1F7E7E7E7EFEFEFEFEFF06
:10397000FFFFFFFFFF7F7F1F1F07030000FFFFFF09
:10398000FFFFFFFFFFFFFFFCFCFEFFFFFFFFFFFF4E
:10399000FFFFFF7F7F07070000000000000000001E
:1039A0000000000000000000000000010101010112
:1039B00001010101010000000000000000010107F9
:1039C0000707071F1F1F1F1F1F1F1F1F1F07070797
:1039D000070101000000000000000000404000005E
:1039E000DC370008010202030405060708090A0B78
:1039F0000C0D0E0F1010000000000000000001026E
:103A00000304060708090000000001020304000087
:103A1000303A0008000000201C00000028010008C7
:103A20004C3A00081C0000201C0C00004401000857
:103A300000000000010000000000C80001000000BC
:0C3A400010000000000000000024F40052
:04000005080000ED02
:00000001FF
